:02000002B0004C
:1040000000400B0046530B00000006000C000502A8
:084010000401B41400000000DB
:044018006C500B00DD
:10401C00034613F8012B002AFBD1181A01387047FC
:10402C0009480A49884208B505D0094A824202D09B
:10403C00121A00F06BFF0748074A0021121A00F011
:10404C0073FF014808BD00BF40E60320AC520B00D3
:10405C00ACE60320ACE60320F0E7032070B5074E76
:10406C00074C00F00DFEA41BA4080025AC4200D1A7
:10407C0070BD56F8043B98470135F7E764520B00C6
:10408C0088520B0000F013B808B500F021F8BDE819
:10409C00084000F0ADBD00F005BA00F00BBA007896
:1040AC00B0FA80F04009704701230370704708B5DF
:1040BC000121052000F054FE0021072000F050FEE5
:1040CC0000F010FDBDE808404FF4165100F0FEBCA6
:1040DC0037B5132000F055FEFF234FF448720093C0
:1040EC0040F22911002300F0FDF90146052000F0F3
:1040FC005FFE00F0F7FC0546132000F042FE041EA4
:10410C000EDA2D21284600F0E3FB61420A222846F4
:10411C0000F0EDFB284603B0BDE8304000F0DBBBFF
:10412C002146F3E710B5074B074A9A600024C3E910
:10413C000044032000F02AF921460120BDE810407C
:10414C0000F02CB9ACE603200000FFFF08B5024BD1
:10415C001B685B6C019308BD4802030008B5024B59
:10416C001B685B68019308BD1802030008B5024B7D
:10417C001B685B69019308BD1802030008B5024B6C
:10418C001B685B68019308BD2C02030008B5024B49
:10419C001B689B68019308BD2C02030008B5024BF9
:1041AC001B68DB68019308BD2C02030008B5024BA9
:1041BC001B689B6A019308BD2C02030008B5024BD7
:1041CC001B681B6B019308BD2C02030008B5024B46
:1041DC001B689B6F019308BD2C02030008B5024BB2
:1041EC001B681B6A019308BD2802030008B5024B2B
:1041FC001B685B6A019308BD2802030008B5024BDB
:10420C001B689B6A019308BD2802030008B5024B8A
:10421C001B68DB6A019308BD2802030008B5024B3A
:10422C001B681B6B019308BD2802030008B5024BE9
:10423C001B685B6B019308BD2802030008B5024B99
:10424C001B681B6C019308BD2802030008B5024BC8
:10425C001B685B69019308BD6402030008B5024B3F
:10426C001B689B68019308BD6802030008B5024BEC
:10427C001B68DB68019308BD6802030008B5024B9C
:10428C001B68DB69019308BD3002030008B5024BC3
:10429C001B681B6A019308BD3002030008B5024B72
:1042AC001B68DB68019308BD3C02030008B5024B98
:1042BC001B681B69019308BD3C02030008B5024B47
:1042CC001B685B69019308BD3C02030008B5024BF7
:1042DC001B689B69019308BD3C02030008B5024BA7
:1042EC001B68DB69019308BD3C02030008B5024B57
:1042FC001B681B6A019308BD3C02030008B5024B06
:10430C001B689B6A019308BD3C02030008B5024B75
:10431C001B681B6C019308BD3C02030008B5024BE3
:10432C001B681B68019308BD4C02030008B5024BC7
:10433C001B685B68019308BD4C02030008B5024B77
:10434C001B681B69019308BD4C02030008B5024BA6
:10435C001B685B69019308BD4C02030008B5024B56
:10436C001B689B69019308BD4C02030008B5024B06
:10437C001B68DB69019308BD4C02030008B5024BB6
:10438C001B681B6A019308BD4C02030008B5024B65
:10439C001B685B68019308BD2002030008B5024B43
:1043AC001B68DB6A019308BD2002030008B5034BB0
:1043BC001B68D3F88830019308BD0000200203006D
:1043CC0008B5034B1B68D3F89430019308BD00006B
:1043DC002002030008B5024B1B68DB6B019308BD80
:1043EC004402030008B5024B1B685B68019308BDCF
:1043FC004002030008B5024B1B689B68019308BD83
:10440C004002030008B5024B1B68DB68019308BD32
:10441C004002030008B5024B1B681B69019308BDE1
:10442C004002030008B5024B1B685B69019308BD91
:10443C004002030008B5024B1B689B69019308BD41
:10444C004002030008B5024B1B68DB69019308BDF1
:10445C004002030008B5024B1B681B6A019308BDA0
:10446C004002030008B5024B1B681B6B019308BD8F
:10447C004002030008B5024B1B685B6B019308BD3F
:10448C004002030008B5024B1B681B6C019308BD6E
:10449C004002030008B5024B1B685B6C019308BD1E
:1044AC004002030008B5024B1B681B68019308BD52
:1044BC001C02030008B5024B1B685B68019308BD26
:1044CC001C02030008B5024B1B681B6C019308BD52
:1044DC001C02030008B5024B1B685B6C019308BD02
:1044EC001C0203008A4210B507D0441A0298C01A65
:1044FC004443501A94FBF0F0184410BD02480023BA
:10450C000360FFF723BE00BFB8E60320002240681B
:10451C001146FFF79FBF002240681146FFF7AABF64
:10452C0040680022FFF79EBF4068002281F0010125
:10453C00FFF788BF002340681A461946FFF77ABF79
:10454C00002340681A461946FFF76CBF00224068EA
:10455C001146FFF75FBF002240681146FFF74ABFC4
:10456C00406800220221FFF74DBF002340681A4625
:10457C00FFF738BF024B03225A60024A1A60704799
:10458C00BCE6032088500B007047F8B5064615466C
:10459C000C468F18BC4206D0336814F8011B9B687C
:1045AC0030469847F6E72846F8BD007C0022FFF716
:1045BC0015BE007C0021FFF719BE007C0021FFF71F
:1045CC001DBE007C0021FFF721BE007C0021FFF7FF
:1045DC0025BE10B514210446FFF75FFD204610BD23
:1045EC0038B5044615464FF47A730022C4E901230A
:1045FC00094B2174084623602946FFF71FFEBF3084
:10460C0008D16B69DB0705D56868FFF753FFE868CD
:10461C00FFF750FF204638BDC4500B00704710B553
:10462C0018210446FFF739FD204610BDF0B5037D77
:10463C00062B8DB00E4600F104074FF0000412D08B
:10464C0000F1080515F8011D0A22304600F04FF95B
:10465C00AF42044419D0002CF4D02E21304600F087
:10466C0037F90444EEE72F236A4639460A208DF8C1
:10467C000040FFF7EBFD6846FFF7CAFC33680246C3
:10468C00DB68694630469847044620460DB0F0BDBD
:10469C0010B5054B0446112240F8043B002100F0F4
:1046AC0043FC204610BD00BFEC500B000346074AEC
:1046BC0010B543F8042B01F1100251F8044B43F8E8
:1046CC00044B9142F9D10A781A7010BDEC500B00D2
:1046DC0010B59DF8084044EA032343EA024242EA3B
:1046EC00016104234160037510BD000007B5064B42
:1046FC000360CB7800938B784A780978FFF7E8FF52
:10470C0003B05DF804FB00BFEC500B00014B024AF8
:10471C001A607047C4E60320F8500B000023406871
:10472C001A46FFF75FBE406800220221FFF76ABEFF
:10473C00002240681146FFF75DBE0022406811461A
:10474C00FFF768BE002340681A461946FFF76ABE99
:10475C00002340681A461946FFF76CBE40680021DA
:10476C00FFF790BE40680021FFF794BE406800221E
:10477C0081F00101FFF766BE40680022FFF772BEB0
:10478C00002240681146FFF775BE002240681146B2
:10479C00FFF760BE2DE9F04395B014460D46074671
:1047AC00FFF776FF00211C220DA8009100F0BCFB46
:1047BC0040230C9320466B460CAA0021FFF756FDB4
:1047CC00044600284BD1024601216868FFF722FEFF
:1047DC000221804622466868FFF71CFE009E814637
:1047EC002146002E3BD0002939D17368022B03D00F
:1047FC000A2B11D0F669F4E7B8F1000FFAD0716901
:10480C0006A8043107ADFFF771FF0FCD3C1D0FC497
:10481C002B6823704146EDE7B9F1000FEAD07469BB
:10482C00102201A800F080FB06238DF8143001AD96
:10483C0004F108031834186859682A4603C208336F
:10484C00A3421546F7D101A906A807ADFFF72EFF25
:10485C000FCD3C1D0FC42B6823704946CAE7009846
:10486C00FFF7FCFC384615B0BDE8F083024B034A59
:10487C001A6000225A607047C8E6032004510B00EE
:10488C00F8B506460D468F180024BD420CD033688F
:10489C0015F8011B9B6830469847031E01DB1C442E
:1048AC00F3E7002C08BF1C462046F8BD13B50446A0
:1048BC00084659B10191FFF7ABFB23680199DB68FE
:1048CC000246204602B0BDE81040184702B010BDA9
:1048DC0003689B68184738B50D210546FFF7F8FFAC
:1048EC000A2104462846FFF7F3FF204438BD30B5B3
:1048FC008BB00023012A8DF8243098BF0A2209AC12
:10490C000D46B1FBF2F101FB125303F0FF03092B2F
:10491C0094BF30333733DBB2AA4204F8013DEFD9F0
:10492C002146FFF7C3FF0BB030BD0000014B002246
:10493C009A607047D0E6032010B5044608462170F3
:10494C00FFF79CFC00236360204610BD054B022240
:10495C001A60054B054A9A600020C3E90000FFF776
:10496C0015BD00BFECE60320E0E603200000FFFFCE
:10497C00024B1A68024B1A60704700BF40E60320D6
:10498C00F0E6032070474174704708B5007CFFF7D0
:10499C00B5FC20EAE07008BD08B5007CFFF786FC8A
:1049AC0020EAE07008BD08B5007CFFF78FFC40EAF8
:1049BC00E07008BD08B5007CFFF780FC40EAE070B1
:1049CC0008BD007CFFF78ABC37B5457C04462DB189
:1049DC00207C03B0BDE83040FFF760BC007C019147
:1049EC00FFF78CFC00280199F2DC284603B030BD9F
:1049FC0010B514210446FFF750FB204610BD0000F3
:104A0C0010B54FF47A730446084611460022C4E9E7
:104A1C000123044B2360012320746374FFF776FC9D
:104A2C00204610BD5C510B004174704770477047B5
:104A3C0008B50021007CFFF791FC40EAE07008BD4E
:104A4C0008B50121007CFFF789FC40EAE07008BD45
:104A5C0008B5007CFFF77AFC20EAE07008BD08B5C9
:104A6C00007CFFF76BFC20EAE07008BD13B5044630
:104A7C00007C0191FFF76AFC0028019901DC607C45
:104A8C0020B1207CFFF772FC20EAE07002B010BD70
:104A9C00007CFFF773BC10B514210446FFF7FDFA38
:104AAC00204610BD10B54FF47A7304460846002119
:104ABC00C4E90113044B2360012320746374114671
:104ACC00FFF72CFC204610BD8C510B00007C002203
:104ADC00FFF72CBC10B514220446002100F024FA78
:104AEC00204610BD10B50F4C88B003A8FFF7F2FF9D
:104AFC002178BFF35B8F11F001010FD1204601919A
:104B0C00FFF7CDFA019948B103AA0748FFF7CAFF8E
:104B1C002046FFF7C9FA054800F0F2F9024808B040
:104B2C0010BD00BFF4E60320F8E60320394A0B0061
:104B3C00002240681146FFF76DBC00224068114608
:104B4C00FFF788BC002240681146FFF793BC406811
:104B5C000022FFF787BC4068002281F00101FFF7BB
:104B6C0071BC002340681A461946FFF763BC00234A
:104B7C0040681A461946FFF755BC0022406811469A
:104B8C00FFF738BC406800220221FFF73BBC002332
:104B9C0040681A46FFF726BC024B04225A60024AB0
:104BAC001A6070470CE70320BC510B00014B1860D6
:104BBC00704700BF44E6032008B50B4B43B1FFF729
:104BCC0091FF03681B699847002801DDAFF3008053
:104BDC00064B43B100F06EF903681B699847002837
:104BEC0001DDAFF3008008BD0000000000000000F4
:104BFC0008B5FFF7E1FFFFF7B9FA014B186008BDE4
:104C0C0028E703200548064A064908B5121A00F0A1
:104C1C007DF9054B054A1A6008BD00BF00F403205E
:104C2C0004F4032018530B0000F403201E1C279AD5
:104C3C0007B5002300931A466FF07701FFF7C0FB0E
:104C4C0003B05DF804FB000007B543880A2B08D0BD
:104C5C00502B0BD1094B1B684BB103B05DF804EB27
:104C6C001847FFF7E5FF03B05DF804FB0023009342
:104C7C001A466FF07701FFF7A3FBF4E718E7032060
:104C8C0010B512480021FFF725FC114B1A68114B87
:104C9C009A42114B0CBF012200221A7001D0FFF76F
:104CAC00B1FFFFF75BFA044600F046F90B4B13B16A
:104CBC002046AFF3008000210848FFF78BFBBDE8CE
:104CCC00104007480021FFF771BB00BFB94B0B0028
:104CDC0000F403201E1C279A14E703200000000098
:104CEC00554C0B00232813B502D9002002B010BD7F
:104CFC00A0F10B03022B1AD8174C2178BFF35B8F52
:104D0C0011F001010BD120460191FFF7C8F901996F
:104D1C0028B11248FFF710FE2046FFF7C5F90F4BDC
:104D2C001878FFF7B3FA0028DFD10120DEE701285D
:104D3C0009D800F07FF80021007CFFF777FA80F0AB
:104D4C000100C0B2D2E709380128EED800F0B2F861
:104D5C00007CFFF7CBFAF2E71CE7032020E70320E7
:104D6C00232838B504460D460AD8FF2908D0FFF78A
:104D7C00B9FF28B129462046BDE83840FFF706BAEE
:104D8C0038BD0D2810B504469CBF0E34A4B2204685
:104D9C00FFF7A8FF50B103212046FFF7EFF90328D6
:104DAC0004D12046BDE81040FFF708BA002010BD22
:104DBC0038B504460D46FFF795FFF0B104212046A7
:104DCC00FFF7DCF9042805D1A9B22046BDE838402C
:104DDC00FFF7ECB902212046FFF7D0F902280CD1DD
:104DEC002046FFF7DBF9012801D0042805D129461C
:104DFC002046BDE83840FFF7E9B938BD70470000E0
:104E0C0038B50A4B0360012304464361084920204E
:104E1C0000F074F8202560600549A560284600F074
:104E2C006DF8C4E90305204638BD00BF1800010029
:104E3C00F0510B0030B50E4D2978BFF35B8F11F09C
:104E4C00010487B011D12846FFF729F968B16846EB
:104E5C00FFF7D6FF6A4621460648FFF7C1FB2846F6
:104E6C00FFF722F9044800F04BF8024807B030BDB8
:104E7C002CE7032030E70320094E0B00704700009D
:104E8C0038B5044614252A46002100F04DF825803B
:104E9C004025074925812846258200F02FF8044932
:104EAC006060284600F02AF8E060204638BD00BF5C
:104EBC00F0510B0030B50E4D2978BFF35B8F11F01C
:104ECC00010487B011D12846FFF7E9F868B101A8B1
:104EDC00FFF7D6FF01AA21460648FFF791FD2846A9
:104EEC00FFF7E2F8044800F00BF8024807B030BDB9
:104EFC0044E7032048E70320894E0B00FFF7CBB8AB
:104F0C00002301461A46184600F044B80A44914260
:104F1C0000F1FF3300D1704710B511F8014B03F8C5
:104F2C00014F9142F9D110BD02440346934200D186
:104F3C00704703F8011BF9E738B5104B1D68AB6BD4
:104F4C000446B3B91820FFF7ADFA0246A86320B99E
:104F5C000B4B0C484221FFF7B5FA0B490B4BC0E940
:104F6C0000130B4B83600B23838100210120C2E9CA
:104F7C000401AB6B00221C615A6138BD44E603206E
:104F8C00F1510B0008520B000E33CDAB34126DE611
:104F9C00ECDE05002DE9F843DFF8B8800646D8F8BA
:104FAC0000001F460D46914600F056F8254B1C6834
:104FBC0034B9254C1C60254B13B11B68C4F88830E0
:104FCC0063681F2B07DDD8F8000000F047F84FF09E
:104FDC00FF30BDE8F8834EB3D4F8880088B91C4B79
:104FEC0023B9D8F8000000F038F8F0E74FF48470DB
:104FFC00FFF758FA0028F4D00023C0E94033C4F876
:10500C008800636840F8239001229A4000EB8301EA
:10501C00D0F800311343C0F80031022EC1F8807073
:10502C0002BFD0F804311343C0F804316368D8F8D8
:10503C0000005A1C0233626044F8235000F00EF852
:10504C000020C6E7E8E703205CE70320000000002F
:10505C00B1440B00A8E6032070477047704700006E
:10506C002D400B0069400B0091400B0095400B004C
:10507C0000000000000000000000000077450B005D
:10508C006D450B0063450B0059450B004D450B005E
:10509C0041450B0069470B0071470B0035450B0070
:1050AC002D450B0023450B0019450B00A1470B00A8
:1050BC00000000000000000095450B00DF450B00D0
:1050CC00B7450B0097450B00BF450B00C7450B00C0
:1050DC00CF450B00D7450B0000000000000000007E
:1050EC0039460B0029460B002B460B0061707000F3
:1050FC00000000000000000029470B0033470B00A4
:10510C003D470B0047470B0051470B005D470B0019
:10511C0069470B0071470B0079470B0085470B0063
:10512C008D470B0097470B00A1470B0025592D25E8
:10513C006D2D25645425483A254D3A2553257A0082
:10514C0061736374696D650000000000000000006D
:10515C0091490B00FD490B00D5490B008D480B0004
:10516C00A5490B00C1490B00B3490B00CF490B00FB
:10517C0093490B0097490B00000000000000000051
:10518C003B4A0B00A34A0B00794A0B008D480B00DD
:10519C006B4A0B003D4A0B004D4A0B009D4A0B001D
:1051AC005D4A0B00354A0B000000000000000000B7
:1051BC009B4B0B00914B0B00874B0B003D4B0B009B
:1051CC007B4B0B006F4B0B0069470B0071470B00BF
:1051DC00634B0B005B4B0B00514B0B00474B0B0015
:1051EC00A1470B00005245454E54206D616C6C6F0D
:1051FC006320737563636565646564002F746D70FB
:10520C002F6A656E6B696E732D4743432D31302DBC
:10521C00706970656C696E652D34385F3230323070
:10522C00313132345F313630363138303633392F14
:10523C007372632F6E65776C69622F6E65776C691C
:10524C00622F6C6962632F7374646C69622F726174
:10525C006E642E630000000031410B0009450B0009
:10526C0081450B0019470B0079480B0039490B009D
:0C527C0059490B007D490B00A54B0B00AD
:10528800040000001400000003000000474E550011
:10529800FB81D1310F7EE701404782298BFDE6D79C
:0452A800570EEBFDB5
:1052AC004C510B0048E603200000000000000000F9
:1052BC0000000000000000000000000000000000E2
:1052CC0000000000000000000000000000000000D2
:1052DC0000000000000000000000000000000000C2
:1052EC0000000000000000000000000000000000B2
:1052FC0000000000000000000000000000000000A2
:0C530C000000000000000000ECE703209F
:045318000000000091
:1053220000000102030405060708090A0B0C0D0E12
:105332000F101112131415161718191A1B1C1D1E03
:045342001F20280000
:04534600785634124F
:04000003B000401CED
:00000001FF
